:020000022000DC
:1070000000000420896C0600C96C0600CB6C0600E9
:10701000CD6C0600CF6C0600D16C060000000000AD
:10702000000000000000000000000000056C0600E9
:10703000D56C060000000000256C0600D96C060027
:10704000DD6E0600DB6C0600DB6C0600DB6C060008
:10705000DB6C0600DB6C0600DB6C0600DB6C0600FC
:10706000DB6C0600DB6C0600DB6C0600DB6C0600EC
:10707000DB6C0600DB6C0600DB6C0600DB6C0600DC
:10708000DB6C060055690600DB6C0600DB6C060055
:10709000DB6C0600DB6C060009A20200DB6C06005C
:1070A000DB6C0600DB6C0600DB6C0600DB6C0600AC
:1070B000DB6C0600DB6C0600000000000000000036
:1070C000DB6C0600DB6C0600DB6C0600F17306006F
:1070D000DB6C0600DB6C0600DB6C060039B50200D9
:1070E000DB6C0600DB6C0600DB6C060000000000B9
:1070F00000000000DB6C0600000000006974060060
:10710000000000000000000000000000000000007F
:10711000000000000000000000000000000000006F
:10712000000000000000000000000000000000005F
:10713000000000000000000000000000000000004F
:10714000000000000000000000000000000000003F
:10715000000000000000000000000000000000002F
:10716000000000000000000000000000000000001F
:10717000000000000000000000000000000000000F
:1071800000000000000000000000000000000000FF
:1071900000000000000000000000000000000000EF
:1071A00000000000000000000000000000000000DF
:1071B00000000000000000000000000000000000CF
:1071C00000000000000000000000000000000000BF
:1071D00000000000000000000000000000000000AF
:1071E000000000000000000000000000000000009F
:1071F000000000000000000000000000000000008F
:10720000F1EE103A43F08073E1EE103A704700BFA0
:1072100010B5054C237833B9044B13B10448AFF3D0
:1072200000800123237010BDF063002000000000E7
:1072300054B0070008B5034B1BB103490348AFF333
:10724000008008BD00000000F463002054B0070077
:10725000154B002B08BF134B9D46A3F5803A002128
:107260008B460F461348144A121A45F0C3FE0F4BC3
:10727000002B00D098470E4B002B00D098470020E1
:10728000002104000D000D48002802D00C48AFF387
:10729000008045F045FE200029003FF04DFD45F0FF
:1072A00019FE00BF000008000000042000000000DC
:1072B00000000000F0630020A4AF022000000000E6
:1072C000000000002DE9F043B1F90030B1F904509D
:1072D000B1F90660134F0C46B1F9021083B0761A6B
:1072E000ED1A8046013638469146013536F014FFD6
:1072F0000096B4F90220B4F900102B46384636F057
:10730000CDFD06FB05F249463846012336F042FF23
:10731000384636F027FF404603B0BDE8F04327F07B
:10732000A1B800BFAC7700202DE9F0411049114809
:107330001D4617463DF07AF86DB10E4E05F1FF3847
:1073400000244445395D304604F101040AD03DF083
:107350009BF8AC42F5D129460648BDE8F0410A2227
:107360003DF092B93DF004F9AC42EAD1F3E700BF39
:10737000E4FF06002C81002038B50B4C0B480D466D
:10738000002100F08DFE20463DF082F8084920469D
:107390003DF04CF81022294620463DF09BF9054A65
:1073A0001378013B137038BD2C81002054770020E6
:1073B000F0FF06003877002010B50F4C0F48012170
:1073C00000F06EFE23780E490E48013323703DF025
:1073D0002DF821780B480A223DF07CF9247804B17D
:1073E00010BD094907483DF073F821460748BDE83C
:1073F000104000F085BA00BF387700205477002095
:107400000C0007002C81002020000700F47E0020E3
:1074100008B52AF001FABDE8084005203DF08AB918
:10742000594838B54FF4E131044603F035FD01E029
:107430003DF080F9204603F047FD03460A20002B6B
:10744000F6D052495048524D524C3DF041F8524905
:107450004D483DF03DF851494B483DF039F8002288
:1074600001214F4802F0D8FC4E494D4802F06AFE17
:107470004D494B4801F0E0FA4C49494801F0DEFA29
:107480004B4941483DF024F84A4802F0B1F94A48D6
:10749000042100F0EDFD11221146474800F0ECFDFB
:1074A000454800F099FB01224449434800F0EAFDB9
:1074B000434935483DF00CF80621424800F07AF97E
:1074C000404800F05FF93B493E4800F017F93E485C
:1074D00000F02AF93B48012100F0B2F9F4223948C2
:1074E000202100F0A9F937481E2100F0A3F94FF43C
:1074F000E071344800F072F90021324800F000FADF
:10750000324921483CF0E4FF09F0C2FA304800213A
:1075100036F0F0F92E48012135F098FE2D49284625
:107520004FF41663002226F0BDFE204626F096FE9C
:10753000294A2A4B226020466361E56026F0C0FE9E
:1075400026F058FF07F068FF30F0FEFB00210446EC
:1075500030F0D8FC2046224930F002FC2046C821F9
:107560000AF030F92046002202210FF087F80023AC
:1075700020461A4609210AF0C3F9BDE838401949E6
:1075800001483CF0A5BF00BF2C810020340007005B
:10759000CC760020E87600203C0007005C00070065
:1075A000B478002084000700B973020079730200E8
:1075B000940007003C7700205477002029730200D4
:1075C000B8000700F47E0020307F0020D4000700C0
:1075D000AC7700200C640020F0008700C572020028
:1075E000E80007006401070010B5044B044640F8AA
:1075F000083B02F039F9204610BD00BFD401070056
:1076000070B5F02284B0144E1448154D154C8721E6
:1076100035F03CFD1449684602F03CF969463046B5
:1076200002F002F9684602F01FF92A460F49304677
:1076300045F018FC0E49684602F02CF969462046D0
:1076400000F0E0FC684602F00FF90A492A4620469D
:1076500045F008FC04B070BD3C770020AC770020FA
:10766000006000205477002088010700E9750200BF
:1076700078010700A57B020072DF704773DF704757
:1076800077DF704738B5054608460C4602F010F91A
:10769000102803D080280ED0012038BDEB7FA288AF
:1076A0001B2B0EDCE9180320E85448704A80EB7F5E
:1076B0000433EB77F0E7A368002BEDD0E97F0D29C9
:1076C00001DD002038BD6A1811206854072151706F
:1076D00058681C689968DB68C2F80E30C2F806006A
:1076E000C2F80240C2F80A10EB7F1233EB77012098
:1076F00038BD00BF0022C2770270704730B5D1E9B3
:10770000042485B0CD68074B00936946CDE9022477
:107710000195FFF7B7FF0446684602F0A5F820463A
:1077200005B030BDEC010700F0B589B00646202257
:107730001348694602F01AFDF37FC2181D2A0CDDBA
:10774000C3F11D04E4B2E2181D2A4FF00005D8BFB2
:10775000082705DD284609B0F0BD044601250927A4
:10776000F218601CF05469465770901C224645F090
:1077700019FCF27F023214442846F47709B0F0BDB8
:10778000B478002010B50446094802F003FDE37FF9
:107790001C2B01DD002010BDE2180221E1540A2358
:1077A00090705370E37F0333E377012010BD00BF77
:1077B000B4780020C27F1C2A01DD0020704710B47D
:1077C00003469C18022098540120A1706070DA7F53
:1077D0000332DA775DF8044B704700BFC37F1B2B81
:1077E00001DD0020704710B4C2180324C4541923CB
:1077F00051805370C37F0433C3775DF8044B01207D
:10780000704700BF10B4084A084C094902620022C0
:10781000C0E90A41C0E90C225DF8044B0270C2774E
:1078200042628263704700BFFF0101002000F40044
:1078300020001E00C1857047018581854285704703
:1078400080F82210704700BFF0B5154605EB8503A0
:10785000274A89B0044603EB830300200E469B00B1
:1078600011680290CDE90460ADF8143094F821302D
:107870008DF80830CB07CDE90600039009D41D49E7
:107880001D4BC87FE77F988101201C6099609F8015
:107890001060194902AA04F12000FFF7EDFE10B1B3
:1078A000002009B0F0BD94F820101448019102F0B6
:1078B00071FC019902460120FFF7E2FE0028EFD19A
:1078C00094F820000121FFF7D9FE0028E8D10B48E9
:1078D00002F0AAFC628EA68595424FF0010094BF8B
:1078E000521B921A628684F8230009B0F0BD00BFD3
:1078F0009C780020307F0020A0780020B478002001
:10790000F0B5002361F30F032D4D044661F31F43CF
:1079100089B00363FA21284602F040FCE68D29492C
:10792000278D0868049706EB860303EB8303002288
:107930009B000592ADF8143094F8213002928DF836
:107940000830C307CDE9062203920BD41E4BE27F19
:1079500095F89B069A8005F27C6501221C609D606B
:1079600098810A60184902AA04F12000FFF784FEFA
:1079700010B1002009B0F0BD94F82010104801911A
:1079800002F008FC019902460120FFF779FE002869
:10799000EFD194F820000121FFF770FE0028E8D114
:1079A000074802F041FC638EA7859E424FF001001C
:1079B00094BF9B1BDB1A638684F8230009B0F0BDDB
:1079C000B47800209C780020A078002030B50B8887
:1079D0008D88112B85B0044605D0262B33D0102B73
:1079E00025D005B030BD436AEB40DB07F9D52E4802
:1079F00001F002F80028F4D1636A94F82310012200
:107A000002FA05F523EA050363620029E9D194F837
:107A10002230002BE5D0238E23486386FA2102F022
:107A2000BDFBE28D218D2046FFF70EFFD9E7CB7B12
:107A3000012BD6D1426A03FA05F5154300234562AE
:107A400080F82330CDE70B7A012BCAD1002380F8D0
:107A500023304FF4FA71144802F0A0FB238E5BB17F
:107A6000658E95B1A36B0BB19847658E618D2A46E3
:107A70002046FFF7E9FEB4E7A36B03B19847618D99
:107A800000222046FFF7E0FEABE7074802F0E0FBEC
:107A9000626B002AA5D0009503AB294628460395C2
:107AA0003FF014FF9DE700BFB478002075DF7047FA
:107AB00010B44FF010144FF448010022C0E9004107
:107AC000C0E902225DF8044B704700BF014800F096
:107AD00099BD00BFA47F0020F8B500250D4F2E46AC
:107AE00001E0142D14D0A9B2384602F085FB01350F
:107AF00004460028F5D000F049FC0028F1D02046CB
:107B000000F04EFC022804BF0136F6B2142DEAD173
:107B10003046F8BDB478002070B58E881B480C46FE
:107B200094B0314602F068FB23881A2B05D01F2B36
:107B30001CD0102B0FD014B070BD054600F028FCEF
:107B40000028F8D0284600F025FC0028F3D128466C
:107B500000F070FCEFE7694600F054FC0028EAD022
:107B60006A4631460A4801F0DFFAE4E754F8080FA4
:107B700061686B4603C33046BDF80030ADF8023093
:107B80006946FFF793FF14B070BD00BFB4780020C2
:107B9000D4780020AADF7047ABDF7047ACDF7047B6
:107BA000B0DF704710B5044B044640F8043B01F0C9
:107BB0005BFE204610BD00BFA401070010B5054BB9
:107BC000044640F8043B01F04FFE20463FF0F6F833
:107BD000204610BDA401070070B57B4B04461B680E
:107BE000836196B0043001F073FE94F82E30A069E2
:107BF00013F0320208BF84F82F2013F00C0308BFE3
:107C000084F830300DF10102694601F023FE94F84A
:107C10002F209DF8010015070DD09DF8001002F0EF
:107C20000F0301F00F059D424FEA12126DD243EA95
:107C3000021284F82F2094F8303019070BD003F08B
:107C40000F0100F00F058D424FEA131369D241EA8C
:107C5000031384F8303094F82E1011F0300340F004
:107C600096800FAD0F93C5E90133C5E903338DF855
:107C70003C10AB610021ADF809109DF80A10206A94
:107C80001493012363F342018DF808208DF80A1044
:107C900008B1037873BB94F8263013B104F12603BE
:107CA000129394F831200023D2070893079358BF0A
:107CB000E38AADF81C3004F1080004F12F01CDE98E
:107CC000050154BF1846E08AADF82000294604F1AA
:107CD0003203E569099505AA0020FFF75BFF054619
:107CE00028B994F8253043BB237D002B64D0284667
:107CF00016B070BD109046F072F802AB80B2ADF8CD
:107D00004400ADF846001393C5E74FEA111101D1C5
:107D100091428CD30A462B4643EA021284F82F2064
:107D200089E74FEA101001D1984290D303462946C3
:107D300041EA031384F830308DE7ADF80D009DF86B
:107D40000E2094F82F600C90012363F3420242F658
:107D500008118DF80E208DF8123004AA0223ADF818
:107D6000101003A90D90ADF83030ADF834300A9200
:107D700004F124030B910DF102020AA98DF80C60A5
:107D80000E93FFF709FF0028AED00546AFE70F4B73
:107D90008DF805200FAD1B788DF8043002200023EC
:107DA0000F938DF80600C5E90133C5E90333AB61D4
:107DB0008DF83C1001AB5DE72146054800F0DEFD83
:107DC000284616B070BD00BFB078002098010700AB
:107DD000F47C00202DE9F0410B888E88502B8AB06E
:107DE0000C46054609D0512B04D18B79012B19D0B3
:107DF000022B26D00AB0BDE8F081CB88428E9A4291
:107E000035D0EA8E9A42F5D16B6D002BF2D095F801
:107E10004420648A920700F18A802246294630462F
:107E20009847E7E7836C002BE4D090F84420520792
:107E300001F108076CD43A46294630469847A379A1
:107E4000D6E7A27B042A46D0062A20D0012AD1D127
:107E5000EB6C002BCED095F84420170704F10804F2
:107E600000F1A5802246294630469847C2E7076DB3
:107E7000002FC6D090F84430D90768D404F1120816
:107E8000238A424629463046B847E388B9E7EA6B79
:107E9000002AAFD0002202A93046CDE90222CDE966
:107EA0000422ADF80C208DF80830FFF779FE2C6D18
:107EB00054B195F84430D80700F19280B5F84230BB
:107EC000EA6B30462946A047E86B3CF069FC00238A
:107ED000C5E90F338EE7E86B002878D0B5F840107D
:107EE000278A628A07EB020C00234FF0020E8C45B2
:107EF000CDE90633CDE908338DF818E039DD40F2DD
:107F00000913ADF81C3006A93046FFF749FE71E7AA
:107F100003211A46009106AB08213846CDE90665D3
:107F200008973FF0D3FC002889D1AB6C83E703208E
:107F300000211A46009006AB0846CDE90665089474
:107F40003FF0C4FC00287FF455AF6B6D65E7218AD4
:107F5000069604F11208042300933A46404606AB05
:107F6000CDE9088107953FF0B1FC00288DD12F6D38
:107F700086E79DF81EC0ADF81C3004F114014CF0EA
:107F800001033844ADF822208DF81E300991ADF878
:107F9000207045F007F8238A618AB5F842200B4427
:107FA0009BB2934238BF1346A5F84230ABE703219A
:107FB0001A46009106AB0E212046CDE906650894CD
:107FC0003FF084FC00287FF415AFEB6C4AE74FF4D8
:107FD00080603CF0CBFB4FF48061C5E90F017FE787
:107FE000E86BB5F84210069604230093224606ABD0
:107FF000CDE9075009913FF069FC00287FF464AF98
:108000002C6D5BE770B44E68164A86600260D1E959
:108010000262154B154D1C78456002611425002243
:108020000321C0E90F22C0E91222C0E91422C66070
:10803000C58280F8311080F84420027582610262A6
:108040008284C0F82620C0F82A2080F82E20C26141
:1080500042864263028780F82F4080F8304070BC2F
:10806000704700BFA401070098010700EC0107005A
:1080700080F82E10704700BF80F82F1080F8302055
:10808000704700BF90F84430016562F3000380F848
:108090004430704751F8322F0260496841607047A0
:1080A00030B5C38A85B00A46012B28BF0123418E13
:1080B0008DF8072000240DF1070502AA4FF6FF7086
:1080C000ADF80830ADF80A400395FFF767FD18B921
:1080D000BDF8080005B030BD204605B030BD00BF7A
:1080E000A1DF7047A3DF7047A4DF704700238383BD
:1080F000704700BF006A00F0E3B800BF808B704794
:108100002DE9F0410B88CE88382B86B00C46054609
:1081100006D0392B66D0362B43D006B0BDE8F081AF
:1081200000F12407002E36D10A8A3846314602F083
:1081300023F994F80C80B8F1010F2CD0B8F1040F9A
:10814000EBD1286A00F0BCF801465C4802F054F814
:1081500000F028F92A8E053883B2934228BF1346CF
:10816000002B00F09A80218AE289286AAC8B8DF876
:108170000D600A44E96A05918DF80C80ADF8123063
:10818000ADF81020ADF80E4000F09AF803A9FFF703
:10819000A9FF0028C1D0384602F006F906B0BDE8B4
:1081A000F081006A00F08CF80146444802F024F89F
:1081B00000F0F8F807466EBB05F12406E289304668
:1081C00004F1100102F0D8F82B8E2BB1F81EE389D0
:1081D00080B20138834255DA304602F0E5F806B045
:1081E000BDE8F0810B7B012B1AD0022B95D1836B5C
:1081F000002B92D090F83C208F8892071FD401F179
:108200001006E28931462846984761893846FFF7CB
:108210006BFF82E705F12407384602F0C5F8BDE799
:10822000436B002B3FF479AF90F83C20D10717D473
:1082300004F11006E2893146284698476DE7C9895E
:10824000039004F1100603201A46009003AB304659
:10825000CDE904613FF03AFB0028D6D1AB6BD0E703
:10826000E189039004F1100603201A46009003AB45
:108270003046CDE904613FF029FB00287FF44DAF83
:108280006B6BD7E7286A00F01BF86A8EA98B92B255
:10829000FFF726FF00289FD13FE7AA8B286AADF899
:1082A0000E2040F20511ADF80C10CDE9043300F0BA
:1082B00007F803A9FFF716FF6DE700BFB4780020A9
:1082C000808870478FDF704790DF7047B1DF70475D
:1082D000B5DF704710B5074B03600446806A3DF078
:1082E000A7F8E06A3DF0A4F8206B08B13DF0A0F8D3
:1082F000204610BDBC01070010B5094B03600446C1
:10830000806A3DF095F8E06A3DF092F8206B08B184
:108310003DF08EF820463EF051FD204610BD00BFD6
:10832000BC01070070B504460D4692E80300A58025
:108330000E0CA061A183144DA67717201B2156892E
:108340002560E0809589D089E181D179658101221C
:1083500022752274A08161741846194626819DF801
:1083600010503CF0C7FA2946A06228463CF0C2FAF9
:108370004FF4885100234FF6FF72E182E06262827F
:1083800023636375204670BDBC010700007D704704
:10839000407D7047C07D113818BF0120704700BF75
:1083A000407C7047C0887047008970474B7D10B48F
:1083B0004BB11F310C688A888B79046082805DF82C
:1083C000044B837170471831F4E700BF818800F1D6
:1083D0001F02407C02F02EB838B50A4605460C460E
:1083E0008188407C02F012F82146012051F8483F74
:1083F000C5F81F308B888A7985F82520A5F82330A9
:10840000687538BD38B50A4604460D4600F11801B6
:10841000407C02F045F8607550B1294651F8483F5C
:10842000C4F81F308B888A7984F82520A4F823307B
:1084300038BD00BF10B5447D24B100F11F01407C60
:1084400002F00CF8204610BD70B50B88113B82B0CD
:108450000C460546462B2BD8DFE803F0383B2A2A8A
:108460002A2A2A2A2A422A2A2A2A2A2A50585E6492
:108470002A2A2A2A2A2A2A2A2A2A2A2A2A2A2A2A5C
:108480002A2A2A2A2A672A942A2A2A2A2A2A2A2AA5
:108490002A2A2A2A2A2A2A2A2A2A2A2A2A246A2A02
:1084A000752C84000023A8881A461946FFF70EFF92
:1084B00002B070BD8B79002BFAD1006BAB75002830
:1084C000F6D01A4619463CF047FAF1E70023037547
:1084D000EEE74B8903818B894381CB898381E7E771
:1084E0000B7AC375112BE3D0818800F11F02407C09
:1084F00002F08EF803460028DAD1D4E7002301A960
:108500008088ADF80430FFF7DDFED1E70B7A002B51
:10851000CED14B7A0374CBE7002211468088FFF757
:10852000D3FEC5E70B89C381C2E74B89C380BFE790
:10853000006B0123AB750028BAD000231A461946F8
:108540003CF00AFAB4E7417C164801F04DFEE3889E
:108550000146994228BF194689B2A888E980FFF7E9
:10856000B7FEA5E78B79002BA2D0002600231A4680
:108570001946A86A3CF0F0F90136A279F3B29A42A2
:10858000F4D895E78B7A002B92D0002600231A4668
:108590001946E86A3CF0E0F90136A27AF3B29A4251
:1085A000F4D885E7B478002070B58AB086880B4689
:1085B00006A84FF42851144605934FF6FF7501F0B5
:1085C0005BF90120CDE90105059B0094314606AA1F
:1085D000044800F06FF8044606A801F045F920466B
:1085E0000AB070BDF47C002010B50446043001F0E0
:1085F0005FFE034B236000232375204610BD00BFA0
:108600000100FFFF017D01B1704710B50446043041
:1086100001F058FE0123237510BD00BF007D704797
:108620000B88322B10B504D0332B17D0302B08D049
:1086300010BDCB88DBB1041D2046BDE8104001F021
:10864000B3BECB88041D002BF6D14B89002BF3D091
:108650000A3120460A2201F08FFEEDE7CB88002B7D
:10866000E9D14A89002AE6D002EB420204E04A89B5
:10867000002AE0D002EB82025200041D023292B2C4
:108680000A31204601F078FED6E700BFA0DF704730
:1086900010B5044600F5F87001F00AFE2046F822F5
:1086A000002144F0A7FCF822A018002144F0A2FC0D
:1086B000204610BD2DE9F04782B00546BDF82C607C
:1086C000BDF830402048ADF80460BDF828A0ADF8F2
:1086D0000640904699460F4601F08EFD05F5F87567
:1086E000064603E0FFF760FE3CF024F8284601F060
:1086F00041FE04463046002CF4D10121284601F009
:10870000E1FD52464946284601F0F8FD08F1040112
:10871000384601AAFFF7BAFF30B1284601F0DCFD68
:10872000204602B0BDE8F0874FF4FA71284601F008
:10873000EBFD20EAE074284601F0CEFDA4B220460D
:1087400002B0BDE8F08700BFB47800202DE9F04FFB
:108750008F880D8885B0884604463946864801F0E2
:108760004BFDA5F11003012B814640F2908094F857
:1087700054203AB3002633461633502D54F823A024
:1087800069D0512D1AD198F80630B8F808B0022BEC
:1087900053D0BBF1000F11D051466846FFF77AFC69
:1087A000BDF800305B4559D0514602A8FFF772FC76
:1087B000BDF80C305B4551D094F854200136F3B22B
:1087C0009342D9D394F84C31002B00F0D18004F5BA
:1087D000A679002604E094F84C310136B34220DD3E
:1087E00059F8040FFFF786FCB842F4D1382D03D0B6
:1087F000392D01D0362DEED1B8F80AA0BAF1000F0C
:10880000E9D0D9F800B05846FFF778FC5045E2D1DE
:1088100058464146FFF774FC94F84C310136B34298
:10882000DEDC112D55D0352D04D1B8F80A30002BDF
:1088300040F08F8005B0BDE8F08F98F80E30062B21
:10884000A7D1DAF800305046DB68414698474846E1
:10885000FFF7A0FDB0E7B8F806B09AE7DAF8003005
:108860005046DB68414698474846FFF793FD00288D
:10887000A2D0502DA0D1514602A8FFF70BFCBDF8A5
:108880000C305B4598D14846FFF7A0FD94E723786C
:10889000002B3FF46CAF0026112D33460CD004EBB7
:1088A00083033946586803685B6898470136227825
:1088B000F3B29A42F3D85AE704EB83033946586877
:1088C00003681B68984701362278F3B29A42F3D8BE
:1088D0004DE7D3B10026334605E094F84C2101362C
:1088E000F3B29A4211D904EB8305D5F85001FFF792
:1088F00001FCB842F1D1D5F85001FFF7F7FB013682
:1089000094F84C21F3B29A42EDD894F8F820002A5A
:1089100090D000252B4604EB8303D3F8FC0083881A
:10892000BB420AD00135EBB2934283D204EB8303FE
:10893000D3F8FC008388BB42F4D103681B689847D6
:10894000013594F8F820EBB29342E4D305B0BDE8CA
:10895000F08F04F5F874B8F80C20204608F11001E7
:1089600001F00AFD204605B0BDE8F04F01F01CBD46
:10897000112D7FF458AFC8E7B478002090F8542048
:10898000272A0CD810B4034602F11604013280F8ED
:10899000542043F8241001205DF8044B7047002058
:1089A000704700BF0378132B06D800EB8302013316
:1089B00003700120516070470020704778DF7047D6
:1089C0007ADF7047054A034692E80300002283E8F5
:1089D0000300C3E902221846704700BFC401070024
:1089E00008B5FFF7EDFF08B1002008BDFFF7E6FF6F
:1089F000B0FA80F0400908BDF8B500250D4F2E46AD
:108A000001E0142D14D0A9B2384601F0F5FB013570
:108A100004460028F5D0FFF7B9FC0028F1D0204625
:108A2000FFF7BEFC012804BF0136F6B2142DEAD1CF
:108A30003046F8BDB478002081607047C16070474F
:108A4000704700BF8ADF704730B40D4CC4621F25E9
:108A5000002250248584A025C0E91122C0E90F22FC
:108A6000A0F84650A0F84840006230BC82620286FE
:108A700080F838204263C264A0F85020704700BFDD
:108A8000000180002DE9F04F10468DB016460C46CF
:108A900000F00EFFC5B2102D4FD0B6680722062396
:108AA000A16994F81C9001918DF80D208DF80C307F
:108AB000ED080DF10C080DF10E0A0027B9F1010FB8
:108AC0000A97CDE90477CDE90677CDE90877CDF8A7
:108AD0002B700ED998F8000001994B464A788242D3
:108AE0000FD00A78D4432344013213F0FF0311441A
:108AF000F4D108F10108C245E0D100200DB0BDE875
:108B0000F08F11F8024B013CE4B2224604A844F075
:108B100049FA0DF1100B1CB9EBE714F0FF04E8D093
:108B200058462A46314644F02FFA641BAB440028CD
:108B3000F3D101200DB0BDE8F08F043603220223EB
:108B4000AEE700BF2DE9F0430B888E88103B87B05D
:108B50000D4604460D2B2CD8DFE803F077072B2BAE
:108B60002B2B2B2B2B2B2B842B2E836AF340DB07F9
:108B70001FD55648FEF7B0FFD8B9A36A94F82C2049
:108B8000012505FA06F623EA0606A6628AB994F8D4
:108B90002D3073B11F232462A38404F1200104F15A
:108BA0004400FFF74FFF20B9494801F03DFB84F82E
:108BB0002C5007B0BDE8F08390F92E2091F91B30BE
:108BC0009A423ADC90F8383001F108080BB3DFF82C
:108BD0000491002602E0D6B2B34218D9636BCDF8F7
:108BE000089003EB061302AA59680391D3E90273B4
:108BF0004146204605930497FFF744FF074602A825
:108C000000F032FE94F83830721C002FE3D09E4200
:108C100013D094F82F30002B49D095F82430012B35
:108C20000BD9296A4A78FF2A30D00A78D043034406
:108C3000013213F0FF031144F4D104F120010020AC
:108C4000FFF700FF07B0BDE8F083CB7B022BB0D16C
:108C5000836A012202FA06F633430022836280F817
:108C60002C20A6E70B7A012BA3D1002580F82C50ED
:108C7000174801F0EDFA226C002A9AD0009502AB59
:108C80002946284602953EF021FE92E711F8025B44
:108C90006A1ED2B2022A28BF022202A844F082F938
:108CA000012DCAD0228EBDF808309A42C5D1E26BA0
:108CB000002A3FF47EAF01230093404602AB2421FB
:108CC000CDF808803EF002FE73E700BFC4780020B4
:108CD000B4780020EC01070046DF70477FDF704763
:108CE00080DF704781DF704785DF704786DF704720
:108CF00038B51C460D46034611462846224698477D
:108D000034B1014600222846BDE83840FFF7E8BFED
:108D100038BD00BF10B50C4682B0034669462046F8
:108D200098476A4620460121FFF7DAFF02B010BDDE
:108D300010B50446083001F0B9FE074B236003224A
:108D400000232271C4F81034C4F81434C4F8183461
:108D5000C4F81C34204610BD3507100330B5044656
:108D6000ADF55F7D00F108058F4801F00FFE082189
:108D7000284601F09FFE684601F0A6FE68460821DD
:108D800001F0A6FE6946284601F044FE04F54F7145
:108D90004122684601F0AAFE684601F0A3FE94F85D
:108DA0005C0394F85B2394F83D1394F83E3384F805
:108DB0003D0384F83E2394F85A0394F8592394F819
:108DC0003F5384F85C1384F85B3394F8401394F8B1
:108DD000413384F83F0384F8402394F8580394F80F
:108DE000572384F85A5384F8591394F8425394F84B
:108DF000431384F8410384F8583394F8560394F8E5
:108E0000443384F8422394F8552384F8575384F864
:108E1000430384F8442384F8553384F8561394F8B4
:108E2000451394F8540394F8532394F8463384F884
:108E3000450384F8462394F8520394F8512394F898
:108E4000475384F8541384F8533394F8481394F830
:108E5000493384F8470384F8482394F8500394F87E
:108E60004F2384F8525384F8511394F84A5394F8DA
:108E70004B1384F8490384F8503394F84E0394F864
:108E80004C3384F84A2394F84D2384F84F5384F8E4
:108E90004B0384F84C2384F84D3384F84E1394F834
:108EA0005D1394F87C0394F87B2394F85E3384F884
:108EB0005D0384F85E2394F87A0394F8792394F898
:108EC0005F5384F87C1384F87B3394F8601394F830
:108ED000613384F85F0384F8602394F8780394F88E
:108EE000772384F87A5384F8791394F8625394F8CA
:108EF000631384F8610384F8783394F8760394F864
:108F0000643384F8622394F8752384F8775384F8E3
:108F1000630384F8642384F8753384F8761394F833
:108F2000651394F8740394F8732394F8663384F803
:108F3000650384F8662394F8720394F8712394F817
:108F4000675384F8741384F8733394F8681394F8AF
:108F5000693384F8670384F8682394F8700394F8FD
:108F60006F2384F8725384F8711394F86A5394F859
:108F70006B1384F8690384F8703394F86E0394F8E3
:108F80006C3384F86A2394F86D2384F86B03012012
:108F900084F86F5384F86E1384F86C2384F86D336F
:108FA0000DF55F7D30BD00BF408000200B7803F0E1
:108FB000FE03042B01D00020704770B515468CB01D
:108FC0000C462022002104A844F014F8286869689F
:108FD000AA68EB686D460FC59DF800109DF80F203C
:108FE0009DF801609DF80E509DF802008DF80F105D
:108FF00023469DF80D108DF800209DF803208DF874
:109000000E608DF801509DF80C609DF804508DF8AD
:109010000D008DF802109DF80B009DF805108DF8DD
:109020000C209DF80A208DF803608DF80B508DF808
:1090300004008DF805208DF80A109DF8061033F80D
:10904000042FADF810209B789DF809209DF81D0095
:109050009DF810609DF81F508DF809108DF80620BE
:109060009DF811109DF81E208DF81D309DF80730D9
:109070008DF812008DF81F609DF808009DF81360B0
:109080008DF810508DF81E109DF81C509DF814108E
:109090008DF811208DF808309DF81B209DF81A30AE
:1090A0008DF807008DF81C608DF813509DF8156041
:1090B0008DF81B108DF8142068468DF815309DF83A
:1090C00019109DF817209DF818309DF816508DF84E
:1090D00018208DF816108DF817308DF81A608DF85D
:1090E0001950FFF7F9FD62789DF82F309DF82E009A
:1090F0009DF82D108DF821009A428DF8221004F170
:10910000010404D0012080F001000CB070BD627831
:10911000C3B29A4204F10104F4D16278CBB29A420C
:10912000F0D10020EFE700BF08B5137CDB0758BF84
:109130001C32084602F11201FFF7D6FDB0FA80F0AA
:10914000400908BDF0B58F880E46ADF56B7D04462D
:109150003946464801F050F83388133B0546072B43
:109160002FD8DFE813F03E005F006D002E002803CB
:10917000870008003100337AB3B9737B9B070ED4A4
:10918000294602A8FFF712F90299BDF80C209DF8B4
:109190000E3084F80C34C4F80614A4F80A242846C7
:1091A00004F2BE31FFF718F9D4F818244AB1307A26
:1091B0000D9002230021009308460CAB0C973EF063
:1091C00085FB0DF56B7DF0BDD4F81C24002AF8D08A
:1091D00001230021009308460CAB0C973EF076FB70
:1091E000EFE704F2BE3304F2DA320C9304F2F63302
:1091F00000251092119304F23D3204F27E330F9257
:109200001393CDE90D551295FFF7CAF801280CBF4D
:1092100022462A460CAB29463846FFF75FFD0DF57E
:109220006B7DF0BD0CA9FFF7EDF80346002800F0B8
:10923000D2820CA9384600231AAAFFF757FDC0E7CF
:10924000D4F810140029BCD0B37B094A03F0010301
:109250000F930423CDE90C1706F1080000930621B3
:109260000CAB0E903EF032FBABE700BFB4780020B1
:10927000F18C020094F87E3394F89D2394F87FC318
:1092800094F89C6394F8805394F89B0384F89D337E
:10929000042194F89A3384F87D1384F87E2394F89B
:1092A000811394F8822384F89CC384F87F6394F834
:1092B00099C394F8836384F89B5384F8800394F8EB
:1092C000985394F8840384F89A1384F8813394F8BB
:1092D000971394F8853384F8992394F8962384F8A7
:1092E00082C384F8986384F8835384F8970384F8DE
:1092F000841384F8852384F8963394F8862394F8AD
:10930000953394F887C394F8946394F8885394F849
:10931000930394F8891384F8952384F8863394F89A
:10932000922394F88A3384F894C384F8876394F87A
:1093300091C394F88B6384F8935384F8880394F86A
:10934000905394F88C0384F8921384F8892394F84A
:109350008F1394F88D2384F8913394F88E3384F826
:109360008AC384F8906384F88B5384F88F0384F85D
:109370008C1384F88D3384F88E2394F89E2394F80C
:10938000BD3394F89FC394F8BC6394F8A05394F849
:10939000BB0394F8A11384F8BD2384F89E3394F89A
:1093A000BA2394F8A23384F8BCC384F89F6394F87A
:1093B000B9C394F8A36384F8BB5384F8A00394F86A
:1093C000B85394F8A40384F8BA1384F8A12394F84A
:1093D000B71394F8A52384F8B93394F8B63384F816
:1093E000A2C384F8B86384F8A35384F8A41384F860
:1093F000B62384F8A53384F8B70394F8A60394F849
:10940000B51394F8A72394F8B43394F8A86394F8A8
:10941000B35384F8B50384F8A61394F8A90394F819
:10942000B21384F8B42384F8A73394F8AA2394F8E9
:10943000B13384F8B36384F8A85394F8AB6394F819
:10944000B05384F8B20384F8A91394F8AC0394F8E9
:10945000AF1384F8B12384F8AA3394F8AD2394F8B9
:10946000AE3384F8AD3384F8AE2384F8B06384F867
:10947000AB5384F8AF0384F8AC130CA801F024FBC1
:109480000CA8082101F024FB04F27D310CA8412234
:1094900001F03EFB0CA904AA202304F1080001F00E
:1094A000E7FA0CA801F01EFB9DF810109DF82F00A4
:1094B0009DF811309DF82E209DF812609DF82D50DA
:1094C0008DF810008DF82F109DF813009DF82C10CA
:1094D0008DF811208DF82E309DF814209DF82B303A
:1094E0008DF812508DF82D609DF815509DF82A606A
:1094F0008DF813108DF82C009DF816109DF829009A
:109500008DF814308DF82B209DF817309DF8282009
:109510008DF815608DF82A508DF816008DF81720FB
:109520008DF828308DF829109DF818109DF8270027
:109530009DF819309DF826209DF81A609DF8255059
:109540008DF818008DF827109DF81B009DF8241049
:109550008DF819208DF826309DF81C209DF82330B9
:109560008DF81A508DF825609DF81D509DF82260E9
:109570008DF81B108DF824009DF81E109DF8210019
:109580008DF81C308DF823209DF81F309DF8202089
:109590008DF81D608DF822508DF821108DF81F2058
:1095A0008DF820308DF81E0094F87E0394F89D13FA
:1095B00094F87F2394F89C3394F8806394F89B5339
:1095C00084F89D0384F87E1394F8810394F89A1329
:1095D00084F89C2384F87F3394F8822394F8993399
:1095E00084F89B6384F8805394F8836394F89853C9
:1095F00084F89A0384F8811394F8840394F89713F9
:1096000084F8992384F8823394F8852394F8963368
:1096100084F8986384F8835384F8841384F8962339
:1096200084F8853384F8970394F8860394F89513A7
:1096300094F8872394F8943394F8886394F89353B8
:1096400084F8950384F8861394F8890394F89213A8
:1096500084F8942384F8873394F88A2394F8913318
:1096600084F8936384F8885394F88B6394F8905348
:1096700084F8920384F8891394F88C0394F88F1378
:1096800084F8912384F88A3394F88D2394F88E33E8
:1096900084F8906384F88B5384F88C1384F88E23B9
:1096A00084F88D3384F88F0394F89E0394F8BD13E7
:1096B00094F89F2394F8BC3394F8A06394F8BB53B8
:1096C00084F8BD0384F89E1394F8A10394F8BA13A8
:1096D00084F8BC2384F89F3394F8A22394F8B93318
:1096E00084F8BB6384F8A05394F8A36394F8B85348
:1096F00084F8BA0384F8A11394F8A40394F8B71378
:1097000084F8B92384F8A23394F8A52394F8B633E7
:1097100084F8B86384F8B70384F8A41384F8B623F4
:1097200084F8A53384F8A35394F8A65394F8A72398
:1097300094F8B43394F8B50394F8A81394F8B36389
:1097400084F8B55384F8B42394F8A95394F8AA2361
:1097500084F8A73394F8B13394F8B0C384F8A6031F
:1097600084F8B31394F8B20394F8AB1384F8A863A5
:1097700084F8B25394F8AC6394F8AF5384F8B123EF
:1097800084F8AA3394F8AD2394F8AE3384F8A9038F
:1097900084F8B013384604A984F8ABC384F8AF63E7
:1097A00084F8AC5384F8AE2384F8AD33FFF79AFA0B
:1097B0000DF56B7DF0BDD4F81424002A3FF401AD03
:1097C0000223002100930C920CAB064A0D97084629
:1097D0003EF07CF8F5E438461A461946FFF786FA5B
:1097E000EFE400BF158D0200A8DF7047704700BF8F
:1097F00030B5044683B0083000F06AF804F10C017B
:109800000DF106020120FFF7EFFF054628B9044BD2
:1098100004481C602146FFF7C5F8284603B030BD58
:10982000B0780020F47C002030B44C68C460D1E9EA
:109830000241054A054D0260054A8560C0E90441C0
:10984000426030BC704700BFD4010700EC01070044
:109850000000111183790B70C3791370704700BF3A
:1098600062DF704763DF7047704700BF10B5044682
:109870003DF0A4FA204610BD10B4054C81800022B2
:1098800001210460C0E902225DF8044B8171704738
:10989000EC010700002210B4044C046081605DF804
:1098A000044B82718280C260704700BFEC010700E8
:1098B0008379012B0AD0826832B9C26822B9012BA0
:1098C0008CBF802000207047802070471020704798
:1098D0002DE9F047857982B0002D47D1C76806464B
:1098E000002F47D010203AF041FF8246384644F01E
:1098F00076FA441E30B3DFF88490A84604E00134C1
:10990000023C1FD4102D1DD017F804C0BCF12D0F40
:1099100007EB0402F3D099F80030ADF805808DF81C
:10992000043012F8013C8DF804301022002101A807
:109930008DF805C044F00EFB6B1C023C0AF80500D4
:10994000DDB2DFD5C6F808A0BAF1000F0ED0B11D08
:109950005046FFF785FFB168321D1020FFF782FFE8
:10996000B0FA80F0400902B0BDE8F087012002B0F3
:10997000BDE8F087D0F808A0E6E700BFE0010700E7
:109980004DDF70474EDF70474FDF704750DF704745
:109990004BDF704710DF70477CDF70477DDF70471B
:1099A00060DF704769DF704761DF704766DF7047CF
:1099B00067DF7047704700BF0C203EF0EDB800BF76
:1099C00030B5224C224D83B0D4F828074FF0FF3138
:1099D0003BF0B2FB0028F7D0C5B101A8FFF7D8FFD4
:1099E0000528F1D00028F8D1019B032B1BD8012BAF
:1099F000F3D918463AF076FCEFE70A2B04D0092B8E
:109A000021D00B2B02D1012005F0E2FA01A8FFF7CB
:109A1000BFFF0528D8D00028F8D1019BA3F1090287
:109A2000022AF3D8E9E7A3F10902022AD5D80A2BC2
:109A300004D0092B05D00B2BCFD1012005F0C8FA9B
:109A4000CBE70220FAE70220DEE700BFB47800206F
:109A5000E54206002DE9F04F2DED028B4FF4FA7030
:109A600089B03AF083FEB24E00F1080308EE103AD6
:109A7000054606F5F06706F5C86AD6F824074FF0E4
:109A8000FF313BF059FB0028F7D04FF4FA730DF18A
:109A900016012846ADF81630FFF786FF10B10528ED
:109AA000F3D1EAE7B5F80490B9F1130F00F2398168
:109AB00006EB8903D3F834473CB129462046FEF72C
:109AC000C3FC9C482946FFF73DFB2B88013B1B2B21
:109AD0005AD8DFE813F0160159005900590059000F
:109AE00059005900590059005900590059005900AE
:109AF00059005900B4001C00590059005900590080
:109B0000590059005900590059005900A200DFF8C6
:109B100038824FF0000B58F8040F30B1FEF736FCD6
:109B200018B10BF1010B5FFA8BFBB845F3D1BBF118
:109B3000000F06D196F830371BB159460C203EF085
:109B40000DF82046FEF72CFC012800F0EC80F269AD
:109B500062B10223002195F808C00093084606ABC5
:109B6000CDF81890CDF81CC03DF0B0FE09F5E678B0
:109B700006EB8803586810B103685B68984706EBEA
:109B800088080023C8F8043029465046FDF71EFF18
:109B900069482946FEF7D6FFB6F832374B452B8881
:109BA00000F0B480102B1ED02CB32046FEF7F8FB3B
:109BB000012803D15E482946FEF742FF2046FEF702
:109BC000EFFB02281BD05D48FEF728FD00BB5C4878
:109BD0002946FEF7BBFDD6F88837002B3FF455AF7A
:109BE0002846984751E7EB7B012BDDD1AB88A6F8DF
:109BF0003237002CD9D14E482946FEF721FF514873
:109C00002946FDF789FF4D48FEF708FD0028DED004
:109C10004A482946FEF704FDD9E7D6F88427002AEA
:109C2000B2D00223002195F908C00093084606AB84
:109C3000CDF81890CDF81CC03DF048FEA4E74FF0D9
:109C40000008D6F82C07CDF8008043464246032191
:109C50003D4C3CF0EBFD54F8040F30B1FEF796FBA1
:109C600018B108F101085FFA88F8BC42F3D196F800
:109C700030376BB1B8F1000118BF01210C203DF065
:109C80006DFF96F830371BB101210C203DF066FFC7
:109C900009F5E67806EB8804606820B103685B6824
:109CA000984700236360EB7B012B0BBF96F81237BC
:109CB00096F8183796F8134796F819470393342007
:109CC0003DF07AF806EB8808039B009418EE102A02
:109CD00004464946FEF726FB2046C8F80440FEF736
:109CE0005FFB012832D0B269002A3FF44DAF012357
:109CF00000210093084606ABCDF818903DF0E6FD34
:109D000042E700214846FFF751FE3DE7102B3FF4A4
:109D10006AAF112B7FF448AF4FF6FF73A6F83237C6
:109D200042E70446D1E6F268002A7FF412AF1DE74D
:109D3000B4780020D4780020507F0020A47F002039
:109D4000F47C0020C4780020E47F0020B268002A60
:109D50003FF41AAF0021009006AB0846CDF81890EA
:109D60003DF0B4FD10E700BF38B50446FEF72AFE0B
:109D700004F11000FDF79CFE04F12000FEF7D8FF6F
:109D800004F58860FEF784FC04F5C860FDF73AFD31
:109D900004F27C60FDF7AEFC04F29C60FEF754FE1A
:109DA00004F5DE60FEF720FC4FF480530025C4F874
:109DB000083716481649174AC4F80C0740F2011331
:109DC000C4F81017C4F81427A4F81837A4F81A57C1
:109DD00004F234702946502243F00CF901224FF668
:109DE000FF73A4F81C5784F81E57C4F82457C4F80E
:109DF0002857C4F82C57C4F88857C4F8845784F8F7
:109E00003027A4F83237204638BD00BF010A1700BA
:109E10000300010117000300F0B5BF4E80F81C17C6
:109E20008DB080F81D2704463DF044F83DF04AF817
:109E30003DF008F83369B949039303A8FFF7AAFD79
:109E400018B1002528460DB0F0BD0120FFF79AFD9E
:109E50000120FFF795FD0120FFF796FD09A8FFF708
:109E600095FD099B9B0705D5AD4BD3F80435002B19
:109E700000F0FE800023AB4A94F80D57049209A924
:109E80000120CDE909330B938DF82450FFF78AFDAB
:109E90000028D6D194F81D370B90CDE90900181E83
:109EA00018BF012094F81C578DF82700049A8DF8EC
:109EB000263009A940208DF82550FFF773FD0028B2
:109EC000BFD194F80C170990034661F30003CDE964
:109ED0000A00049A8DF8243009A9A020FFF762FD3A
:109EE0000028AED1D4F808370A900B90049A099351
:109EF00009A9A120FFF756FD0028A2D194F81C372C
:109F0000002B40F0B98094F81D37002B48D0002377
:109F1000B4F81477049A0993022509A92320CDE9FE
:109F20000A338DF82450ADF82670FFF73BFD00286A
:109F300087D1CDE9090094F81D77B4F816370B9056
:109F4000049A8DF8245009A920208DF82670ADF8C8
:109F50002830FFF727FD00287FF473AF0990CDE983
:109F60000A0094F81837049A8DF8245009A9222081
:109F70008DF82630FFF716FD00287FF462AFCDE99B
:109F8000090094F819370B90049A8DF8245009A908
:109F900021208DF82630FFF705FD00287FF451AF12
:109FA00004A8FFF7FDFC00287FF44BAFCDE90700C4
:109FB00040F0010307A902208DF81C30FFF7F8FCE0
:109FC00000287FF43EAF2046FEF70AFD0546002834
:109FD0003FF437AF04F12000FEF7C0FE337D524955
:109FE0008DF808300D2202A8FFF7D6FC00287FF478
:109FF00028AF94F81D37002B40F088800322002101
:10A0000001203AF035FCC4F8240700283FF419AFCA
:10A0100005AB0326CDE900634449454800234FF4CE
:10A02000A0623BF0A3FB3246002101203AF020FC65
:10A03000C4F8280700283FF404AF06ABCDE900635D
:10A040003C493D480023C8223BF090FB3B4B4FF47A
:10A0500080021A603A4B00930023184601224FF405
:10A0600080713CF08DFBC4F82C0700F0A9F9E9E6FB
:10A07000022004F0ADFFFDE60990CDE90A00B4F836
:10A080000E37049AADF82630012509A923208DF852
:10A090002450FFF787FC00287FF4D3AECDE90900F8
:10A0A00094F81C77B4F810370B90049A8DF824506C
:10A0B00009A920208DF82670ADF82830FFF772FC32
:10A0C00000287FF4BEAE0990CDE90A0094F812375B
:10A0D000049A8DF8245009A922208DF82630FFF724
:10A0E00061FC00287FF4ADAECDE9090094F8133788
:10A0F0000B90049A8DF8245009A921208DF8263060
:10A10000FFF750FC00283FF4FEAE9AE604F1100081
:10A11000FDF7DCFC72E700BF48020700B5990200BA
:10A12000007002400060002030020700400207007B
:10A13000559A020044020700C199020000E100E0C4
:10A14000B999020000B5084B85B01B7D0191084606
:10A150008DF80C3043F043FE019982B203A8FFF75B
:10A160001BFC05B05DF804FB4802070000B583B096
:10A1700008460DF10601ADF80620FFF70FFC20B9E7
:10A180009DF8060003B05DF804FB002003B05DF805
:10A1900004FB00BF90F91E07704700BF70B504466E
:10A1A00082B0D0F82C070D463CF06CFB4FF47A726D
:10A1B00006460023A90DA80242F0C4FC0023024673
:10A1C0000421D4F82C0700933CF030FB0EB102B010
:10A1D00070BD0096D4F82C073346324603213CF07C
:10A1E00025FB02B070BD00BF01290CBFB0F80E07FF
:10A1F000B0F81407704700BF13299ABF00EB810124
:10A20000D1F834070020704710B5064C0021D4F86F
:10A2100028073AF005FED4F824070021BDE81040D5
:10A220003AF0FEBDB478002090F8303703B970479B
:10A2300010B582B0D0F82C473BF088FC00230246D2
:10A240000093204601213CF0F1FA02B010BD00BF9E
:10A25000F0B583B0002405462346D0F82C070094BF
:10A26000224603213CF0E2FA05F5E66605F5F067C3
:10A2700056F8040F20B1FEF789F808B10134E4B2B2
:10A28000BE42F5D195F8303743B1211E18BF0121E8
:10A290000C2003B0BDE8F0403DF060BC03B0F0BD61
:10A2A0000148FFF761BD00BFB4780020002070476F
:10A2B000002201214270C0E901220170C281828125
:10A2C000704700BF10B50446017001B110BD0A20EF
:10A2D0003AF010FB606010BD037810B5044643B13E
:10A2E000002301226370C4E90133E381A38122705A
:10A2F00010BD40683BF09CF8F2E700BF002381608E
:10A300008281C381704700BF037870B504460D4653
:10A31000B3B94668012363704FF47A720023A80230
:10A32000A90D42F00FFC014630463AF005FF98B9FE
:10A33000237800264FF0FF356670A3B9284670BD1C
:10A340000322002101203AF093FA064660600028BB
:10A35000E0D14FF0FF35F1E7E58923780026ADB273
:10A360006670002BEAD060683BF062F866602846B1
:10A3700070BD00BF4078704738B50446808982427E
:10A3800028BF0246154619B1A06842F00BFEA0890D
:10A39000E389A26815FA83F3401B9BB22A44A0818B
:10A3A000E381A260284638BD406820B100231A46E8
:10A3B00019463AF0D1BA7047B1DF7047B2DF704743
:10A3C00008B50F4839F01AFE0E490D4834F0FAF876
:10A3D00028B10D490A4834F0F5F850B108BD0949D3
:10A3E000074834F00BF90849054834F0EBF8002829
:10A3F000F4D1BDE808400449014834F0FFB800BF7B
:10A40000CC8F0220700207008402070070B586B06E
:10A410000E4603230021054614460093044A049681
:10A42000084603AB039505943DF050FA06B070BDA5
:10A43000F9A6020070B586B00323144606460D4601
:10A440000093104603AB044A05940721CDE9036548
:10A450003DF03CFA06B070BD29A8020030B50A46AE
:10A4600091B089795379039111790293D378094D89
:10A47000094C019100939378527801280CBF29462A
:10A48000214604A843F04CFC04A9044834F00EF91A
:10A4900011B030BD98020700C8020700CC8F02201F
:10A4A0002DE9F043D1B00B78032B04AF0D460446E1
:10A4B000904668D95A08022A5ED14F4A4F49504BFC
:10A4C000DFF84891012818BF11460022381D34F0EA
:10A4D000C5FA4B4907F1680034F0F6F907F1CC06EC
:10A4E00011E00246414607F1680034F0DFFA08F156
:10A4F000380229464846FEF759FD044678BB07F165
:10A50000680034F049FB0022391D304634F076FBF8
:10A5100007F1D0000DC8D7F8DC10D7F8E4407B670E
:10A52000D7F8E83097F8E0C0F8663A67B967412293
:10A5300007F1EC0107F18800C7E9204387F87CC0E8
:10A5400042F030FD07F1680034F052FB044607F199
:10A55000680044B134F058F95028D0D1C1E707F170
:10A56000680034F019FB381D34F016FB204607F55F
:10A570009A77BD46BDE8F0830024204607F59A7718
:10A58000BD46BDE8F083E9468CB08979AB786A783E
:10A59000039169790291297901911A4E1A49E87853
:10A5A000009004AD012C08BF3146284607F1CC06C7
:10A5B00043F0B6FB1249304634F086F9294630465E
:10A5C000002234F02FFA044650B90024304634F00B
:10A5D000E3FA2046CD4607F59A77BD46BDE8F083FD
:10A5E000304634F011F9021EEFDD92B2414630469A
:10A5F00034F05CFAEAE700BF84020700700207004B
:10A60000CC8F022098020700C8020700D4780020EF
:10A61000F0B5ADB095799378344E144652780395E1
:10A620006579029594F804C0CDF804C0304DE47803
:10A63000009404AF0C4601280CBF3146294607F1AF
:10A640000C0043F06DFB2B4B07F10C0107F13C00B4
:10A65000002234F003FA07F13C0034F0C9FA40B9A3
:10A66000002407F13C0034F097FA2046A437BD4699
:10A67000F0BD07F13C0034F0C7F8051E08DD07F116
:10A680003C0034F051FA291807F13C0034F02EFA5E
:10A6900007F13C0034F0B8F8051E08DD07F13C0076
:10A6A00034F042FA291807F13C0034F01FFA07F1A0
:10A6B0003C0034F0A9F80028D2DDC31D23F00703C5
:10A6C0006D46ADEB030D82B204A907F13C00C7E96A
:10A6D000001234F0EBF92046D7E900120323FFF70C
:10A6E0006BFEB0FA80F46409AD46BAE79802070041
:10A6F000C8020700CC8F0220F0B5B5B092F84E50DA
:10A7000092F84A30434E144692F84920039594F843
:10A710004D50029594F84C50019594F84B5000958B
:10A720000D463D4904AF012818BF314607F12C0002
:10A7300043F0F6FA394807F12C0133F043FF6E4637
:10A7400000284AD1354B07F12C0107F15C000122AA
:10A7500034F084F907F15C0034F04AFA18B9C437D0
:10A76000B546BD46F0BD502107F15C0034F07AF8E3
:10A770005022214607F15C0033F0B2FF0023294646
:10A7800027487B61C7E90333C7E90633C7E90833C4
:10A79000BB62FFF731FD07F10C012022FDF704FF3A
:10A7A0003B7B03B307F10C0043F019FB013082B28D
:10A7B000C1B207F15C007A6034F054F87A6807F1AE
:10A7C0000C0107F15C0033F08BFF07F15C0034F003
:10A7D000E3F9C437B546BD46F0BD07F12C010F487B
:10A7E00033F064FFAEE794F8491094F84D3094F8D4
:10A7F0004E20039194F84A10029194F84B10019165
:10A8000094F84C10009107F10C00064943F088FAC7
:10A81000C8E700BFC802070098020700CC8F0220DB
:10A82000B4780020F80207002DE9F043ADB00C46E3
:10A8300004AF0021032306461546204607F10A020D
:10A840007981FFF7BBFD7B89E84623B9A437C5466C
:10A85000BD46BDE8F0830733DB08A8EBC3039D4684
:10A860000DF11009204607F10A0249460323FFF7BC
:10A87000A5FD04460028E9D1A979AB786A7803914F
:10A8800069790291297901913D483E49ED78009519
:10A89000012E08BF014607F10C0043F041FA3A4B84
:10A8A00007F10C0107F13C00012234F0D7F807F161
:10A8B0003C0034F09DF90028C8D0214607F13C0047
:10A8C00034F014F907F13C0033F09EFF041E08DD5C
:10A8D00007F13C0034F028F9211807F13C0034F06E
:10A8E00005F907F13C0033F08FFF041E08DD07F186
:10A8F0003C0034F019F9211807F13C0034F0F6F867
:10A9000007F13C0033F080FF7C8980B2A04213D075
:10A91000E1B207F13C0033F0A5FF2246494607F1BA
:10A920003C0033F0DDFE07F13C0034F035F9A4378C
:10A93000C546BD46BDE8F083E31D6D46DB08A5EBCB
:10A94000C3039D4604A9224607F13C00796034F018
:10A95000ADF879687A89484642F016FB08B9AD46E9
:10A96000E1E707F13C0034F0FBF87B89DB43191881
:10A9700007F13C0034F0BAF8AD467C89C8E700BF67
:10A9800098020700C8020700CC8F022038B590F863
:10A99000E8500DB1284638BD012380F8E830044660
:10A9A0003EF0E2FE0028F5D12046BDE8384000F038
:10A9B00011B800BF10B5044C204600F007F8002382
:10A9C00084F8E83010BD00BF40800020002280F8ED
:10A9D000E420704770B590F8E4400CB1204670BD9B
:10A9E000012380F8E43005464FF4BF5039F0BEFE35
:10A9F00006460028F2D0314628463DF029FE04469E
:10AA0000B4FA84F43046640939F0CAFE204670BDB9
:10AA1000704700BF03680A689A4201D0002070475F
:10AA200070B5044684B04FF453700D4639F09EFE65
:10AA30000646B0B10C48FFF7EBFF23460435002172
:10AA400053F8042B0095CDE9016108493EF026FD3D
:10AA50000446304639F0A4FEB4FA84F0400904B04C
:10AA600070BD002004B070BD4080002079820600D7
:10AA7000F0B585B006464FF453700D461746039364
:10AA800039F074FE78B1044600903A46281D311D15
:10AA900003AB3EF081FD0546204639F081FE15B935
:10AAA000039805B0F0BD002005B0F0BD00220260A3
:10AAB000704700BF10B5044608463EF0DFFD206039
:10AAC000003818BF012010BD00220260704700BF8F
:10AAD00010B5044608463EF0D1FD2060003818BF8E
:10AAE000012010BD00230360704700BF00B583B094
:10AAF0000430019201AB0A4604213EF049FC18B92A
:10AB0000019803B05DF804FB002003B05DF804FB7E
:10AB1000F0B5044683B04FF463700E46174639F023
:10AB200025FE054678B1019054F8040B00943A468E
:10AB3000314601233EF068FB0446284639F030FEDA
:10AB4000B4FA84F0400903B0F0BD00BF01460148EB
:10AB500000F056BA4C81002038B500F097F940B1AA
:10AB6000002405462046013400F0C8FDE0B28542CD
:10AB7000F9D838BD70B592B01D460C46164601A8EE
:10AB80004222002142F036FA412D5CD9631C022298
:10AB9000DBB28DF806408DF80E408DF8264040F669
:10ABA000083540F202248DF81E308DF827308DF8DC
:10ABB0003130ADF804508DF807208DF812208DF853
:10ABC00033208DF83B20ADF80840204A069240F231
:10ABD000012505232424ADF810508DF815308DF88B
:10ABE000164004231A4C8DF81F30012540F22462D0
:10ABF0008DF81C508DF830300894ADF82420154D98
:10AC00000A9508234FF411640A228DF82C30ADF810
:10AC10002E4040238DF834200F4C8DF83C3001A994
:10AC2000304640F2075540F209464222ADF80C602A
:10AC3000ADF838508DF84330CDF83F4042F0B2F9CE
:10AC4000422012B070BD002012B070BD200105245A
:10AC5000240202050705800307058002007EFF2805
:10AC60000AD010B500F0F8FC044608B1204610BD2B
:10AC70003CF04CFD204610BD00207047007EFF28B0
:10AC80000ED000B583B00DF1070100F02DFD20B10D
:10AC90009DF8070003B05DF804FB4FF0FF30F9E7C3
:10ACA0004FF0FF30704700BF007EFF280FD000B587
:10ACB00083B001220DF1070100F0DAFC20B19DF80C
:10ACC000070003B05DF804FB4FF0FF30F9E74FF0E9
:10ACD000FF307047007EFF2801D000F00FBD7047A5
:10ACE000007EFF2801D000F069BD0020704700BF42
:10ACF000F8B50646007EFF281CD017465AB10D460F
:10AD0000144600F083FC2946224680B1307E00F0D4
:10AD100039FD241A01D13846F8BD05443CF0F6FC53
:10AD2000307E00F073FC294622460028EED13F1BFE
:10AD30003846F1E70020F8BD70B50368184A5B6833
:10AD400082B093428DF8071021D10546007EFF287E
:10AD500023D000F05BFC0DF10706012431462246AA
:10AD600088B1287E00F00EFD241A02D1012002B025
:10AD700070BD06443CF0CAFC287E00F047FC31461A
:10AD800022460028EDD1C4F1010002B070BD0122BD
:10AD90000DF10701984702B070BD002002B070BDF0
:10ADA000F1AC020070B592B01D460C46164601A8E3
:10ADB0004222002142F01EF9412D5CD9631C02227F
:10ADC000DBB28DF806408DF80E408DF8264040F637
:10ADD000083540F202248DF81E308DF827308DF8AA
:10ADE0003130ADF804508DF807208DF812208DF821
:10ADF00033208DF83B20ADF80840204A069240F2FF
:10AE0000012505232424ADF810508DF815308DF858
:10AE1000164004231A4C8DF81F30012540F224629D
:10AE20008DF81C508DF830300894ADF82420154D65
:10AE30000A9508234FF411640A228DF82C30ADF8DE
:10AE40002E4040238DF834200F4C8DF83C3001A962
:10AE5000304640F2075540F209464222ADF80C60F8
:10AE6000ADF838508DF84330CDF83F4042F09AF8B5
:10AE7000422012B070BD002012B070BD2001052428
:10AE8000240202050705800307058002014B18789C
:10AE9000704700BF48810020037EFF2B02D1074B83
:10AEA0001A7802B17047064902764161012200F129
:10AEB000100104481A7000F043B800BF4881002018
:10AEC000180307004C810020007EFF280ED000B53B
:10AED00083B000F09BFB10B103B05DF804FB019060
:10AEE0003CF014FC019803B05DF804FB00207047AF
:10AEF00001B900B1704700B583B0694600F09CFB12
:10AF0000009BB3F5966F02D003B05DF804FB00F030
:10AF100029FBF9E730B4084B084AFF2002F1080585
:10AF20004FF47A740021303218761D609C601A61EB
:10AF300030BC5960596170472C81002028030700FC
:10AF4000F8B50546B0F818016C69B5F81A310A6809
:10AF50000E4604441B1A176895F81C119BB2224632
:10AF60003046B84750B3221894423CD2766806E087
:10AF7000052B25D023780BB31C44A24233D9637828
:10AF8000042BF5D1E378002BF4D195F81C11013195
:10AF900085F81C11002EEDD095F840110729E9D84D
:10AFA00001F1480745F82760217295F840110131F9
:10AFB00085F840111E462378002BDDD10020F8BD16
:10AFC00094F90230002B08DB95F81E31591C85F8E6
:10AFD0001E11A1780B43A370CCE795F81D31591CC5
:10AFE00085F81D11F5E7B5F818216B69104480B29A
:10AFF000A5F81801588095F81C211A710120F8BD98
:10B000002DE9F043284DDFF8B090AC460446884661
:10B01000BCE80F0089B003AF0FC703AE0FCE05F138
:10B02000140E25460FC59EE80700DCF800303B8073
:10B030006B4636682E8003C36B4603CB1B4EA06164
:10B0400004F118034FF4807C0125E16184F820208D
:10B05000636140F2EF2200231548C4F8189140F2D2
:10B0600009470421A4F81CC1C4F8280184F8401140
:10B07000A280C4F82C31C4F83031C4F83431C4F89B
:10B080003831C4F83C314FF4E131C4E9487609481D
:10B0900084F81E51A571FFF7FFFE404600F050FAFC
:10B0A000284609B0BDE8F083780307005C03070079
:10B0B000300207002C810020090000012DE9F04F2B
:10B0C00004468BB0002900F09180032900F09C8099
:10B0D00090F840318B4240F2CB80483100F5A275A8
:10B0E00050F821603278002A00F0E78000231946EA
:10B0F000374603E00131725C7718CAB102F14000B3
:10B10000C0B20128F6D9F42AF4D8100618D40120C8
:10B11000A2F55847B7F5006FECD30144202B00F09F
:10B12000C98025F81320725C01337718002AE5D115
:10B13000DBB201335B0043F4407304F5A17C5DE0B6
:10B1400002F0E000C02800F0A18002F0F000E0284A
:10B1500000F0918002F0F800F028CBD102F0070255
:10B160004FF0040E787800F0C00CBCF1800FC1D114
:10B1700097F802C00CF0C00800F03F00B8F1800F53
:10B1800040EA8212B6D10CF03F0CBEF1030F4CEA3C
:10B19000821275D0F87800F0C007802FAAD100F095
:10B1A0003F0040EA8212A2F58030B0F5801F38BF20
:10B1B0004FF0040E9ED2A2F55840B0F5006F99D31F
:10B1C000B2F5803F7144A9D31E2BB1DCA2F58032C9
:10B1D0005800970A2844C2F30902A7F52057A2F5A0
:10B1E000105225F813704280023384E7D0F82031E2
:10B1F000A0F8443100F5A17C4FF44173A4F842312A
:10B2000060460BB0BDE8F08F02A800F0ADF904F580
:10B21000A17C019020B300F1FF3B5FFA8BF3284F34
:10B2200004F1040B0DF1080A0BEB830BA64606AEE6
:10B2300097E80F001AF8018B86E80F0008F00F0955
:10B240000AADA94405EB181819F8109C18F8103C21
:10B25000AEF84691AEF844310EF1040EDE45E7D16A
:10B26000019B5B00DBB201335B0043F44073C5E735
:10B270004FF0000CC4E702F00F024FF0030E71E72D
:10B28000A2F50060B0F5784F95D333E7787800F0F9
:10B29000C007802F02F01F027FF42CAF00F03F00A8
:10B2A00040EA8212A2F18000B0F5F06FBFF422AF45
:10B2B00002202DE740F242333FE740F202333CE701
:10B2C00064030700004870474C810020014B586917
:10B2D000704700BF4C8100200A4601460148FFF735
:10B2E000EDBE00BF4C810020024B186800B1006920
:10B2F000704700BFD082002030B40848BDF8085025
:10B30000046844B1646934B10846A44611461A463B
:10B310002B4630BC6047002030BC7047D0820020F4
:10B3200030B40848BDF80850046844B1A46934B189
:10B330000846A44611461A462B4630BC604730BC2E
:10B34000704700BFD0820020024B186808B190F807
:10B3500050007047D48200202DE9F047244C256826
:10B36000002D42D01F4600EBC00305EB83030446CB
:10B37000D3F818A089469046C600BAF1000F30D025
:10B38000504642F02CFD0828024628BF08223444CB
:10B3900005EB8405D5E90764DFF85CC0154B002E8A
:10B3A00008BF664651464846002C08BF1C4641F07F
:10B3B000F9FD304642F013FD10280246314628BF01
:10B3C0001022404641F0EEFD204642F008FD0428E0
:10B3D00002462146384628BF0422BDE8F04741F026
:10B3E000E1BDDFF818A00822D1E7BDE8F08700BF73
:10B3F000D4820020B4030700A403070098030700C9
:10B40000F8B50B4F3B688BB100EBC00503EB85052E
:10B4100004466A69C6001AB190473B6885F82A005D
:10B42000344403EB840393F82A00F8BD1846F8BDB2
:10B43000D4820020074B1B685BB100EBC00003EB1C
:10B44000800010B4038D446A0C605DF8044B1380D7
:10B4500070477047D48200200A781E2A01D100204C
:10B46000704710B520221C460521002300F078FF0C
:10B47000204610BD30B4094C029A256855B10446E7
:10B4800004EBC40405EB840408461946A3680BB119
:10B4900030BC18474FF0FF3030BC7047D4820020DA
:10B4A00030B4094C029A256855B1044604EBC40433
:10B4B00005EB840408461946E3680BB130BC184715
:10B4C0004FF0FF3030BC7047D4820020054B1B6822
:10B4D00033B100EBC00003EB8000036903B11847F0
:10B4E000704700BFD482002000B5104B402283B0CB
:10B4F00083F8272303F030FF4FF080430024D3F874
:10B5000038548DF8004068463BF070FC084B0193BE
:10B5100001A83BF0BBFC3BF0C5FCEB0702D401F0FB
:10B5200009FFFCE7204603F053FDF8E700E100E0E7
:10B5300035B5020003F04CBD002003F029BA00BF6E
:10B5400000B5002383B00322CDE90023034904485A
:10B55000C8223AF00BF903B05DF804FBB80307000A
:10B56000E9B402003CF06EBA4FF08052536E1BBA41
:10B570000360136E1BBA4360082070470048704791
:10B58000C003070070B51F4D2B68B3B199B914788B
:10B59000C4F34114012C0BD0022C07D15478012C98
:10B5A0000DD0022C07D19388072B21D0084670BDFF
:10B5B000517822290CD0012070BD184670BDDC697D
:10B5C000F4B1237811462246BDE8704002F070BE07
:10B5D0005188003918BF01211976114602F04EFE3C
:10B5E0002A68136A002BE6D0107E9847204670BD6B
:10B5F000054C114623892246BDE8704002F058BE32
:10B60000204670BDD88200200460002010B504469A
:10B6100001F0ECFD08B9002010BD01F0EFFD00289D
:10B62000F9D104484FF45A7303FB0400007900F089
:10B63000010010BDDC820020064B4FF45A7202FB61
:10B64000003050F8063F0B60838882798A718B80C6
:10B65000704700BFDC82002008B5044B4FF45A72DB
:10B6600002FB0030103001F025FC08BDDC82002018
:10B670002DE9F0414FF45A7505FB00F5194F05F11E
:10B6800010043C4492B2204601F040FC064620469D
:10B6900001F02AFC3F2802D83046BDE8F08107EBD4
:10B6A0000508002098F8031002F01EFD0028F3D0D2
:10B6B000204601F019FC3F280BD905F53A7298F89D
:10B6C00003103A444023002002F072FD3046BDE8EA
:10B6D000F08198F80310002002F03EFD3046BDE8EE
:10B6E000F08100BFDC820020034B4FF45A7202FB52
:10B6F0000030103001F07CBCDC8200202DE9F041EC
:10B70000044601F073FD10B90020BDE8F08101F09E
:10B7100075FD06460028F7D14FF45A71DFF86080B6
:10B7200001FB04F404F12C054544284601F0C2FB5A
:10B730000028E9D008EB04073046B97802F0D4FCC1
:10B740000028E1D004F54A744444284621464022AA
:10B7500001F0DCFB054660B1B978224630462B4645
:10B7600002F026FD40B9054B1B68DB07CCD500BEB7
:10B77000CBE7B97802F0F0FC2846C6E7F0ED00E030
:10B78000DC82002038B50C4B4FF45A7404FB0034B3
:10B790002C3492B20546204601F06AFC034620464E
:10B7A0001C4601F087FB3F2801D8204638BD2846BB
:10B7B000FFF7A4FF204638BDDC82002008B5044B0B
:10B7C0004FF45A7202FB00302C3001F08DFB08BDA3
:10B7D000DC820020F0B51C4C83B000214FF45A727B
:10B7E000204601250E4641F005FCFF234FF442425E
:10B7F00004F148016371E2802B460827009604F1AA
:10B8000010004FF4807227732581668101F016FBCA
:10B810002B464FF4807204F5A471009504F12C00BE
:10B8200001F00CFB04F51271284639F045FA04F5D5
:10B83000267103462846C4E9096339F03DFAC4E994
:10B84000100603B0F0BD00BFDC82002010B5094B2C
:10B85000002203F12C0403F110001A601A7101F0A8
:10B860007DFC204601F07AFC20460121BDE8104015
:10B8700001F09CBCDC8200202DE9F0414B79022BC9
:10B8800082B002D18B79022B04D00025284602B069
:10B89000BDE8F081314FBB782BB1314B1B68DB0722
:10B8A000F3D500BEF1E78B783B700C780C4406466C
:10B8B000617824294FF009050BD1082A02D80FE03E
:10B8C000AA420DD323781C442B44617824299DB2CD
:10B8D000F6D005291BD0042902D163790A2B28D080
:10B8E000204801F001FB3F28D0D9F978002002F070
:10B8F000FBFB0028CAD01B4801F0F6FA3F28F97874
:10B9000013D9194A4023002002F052FCBEE7214619
:10B91000304602F0C9FB0028BFD0A3787B702378A3
:10B920001C442B4461789DB2D5E7002002F014FC42
:10B93000ACE70E4A94F80080019202230132009293
:10B94000304604EB08011A4602F03AFB0028A4D066
:10B9500005F10E0318FA83F39DB2C1E7DC820020E3
:10B96000F0ED00E0EC820020C4850020DE820020A3
:10B9700038B5137803F06003202B0CD1264C938844
:10B9800025789D4207D15378203B032B03D8DFE86D
:10B9900003F009151E04002038BD71B3022931D00F
:10B9A000012038BD61B10229FAD11C4B002BF7D020
:10B9B0001B490020AFF30080012038BD0029EFD1E2
:10B9C00011460723164A02F073FC012038BDA1B1CD
:10B9D0000229E5D15588257105F00104114884F04C
:10B9E000010101F0E3FB104B002BD9D0C5F340025D
:10B9F00021460020FFF77CFAD2E7114602F03EFC18
:10BA0000012038BD094B002BCAD051880020AFF36C
:10BA10000080012038BD00BFDC8200200000000053
:10BA2000E282002008830020F1AE02000000000046
:10BA30002DE9F047574DEA788A420C4607461E46E4
:10BA40005CD19AB205F53A7105F1100001F010FBD6
:10BA5000514BD3B16B79FF2B17D0B6B105F2E72864
:10BA600008EB060AA8F2D72902E0D0450DD06B7981
:10BA700018F8012F9A42F8D1484601F02BFA002815
:10BA8000F3D16979AFF30080EFE7444B23B1444829
:10BA900001F020FA002870D0414801F025FA3F2833
:10BAA00005D9E978002002F01FFB002858D1AB78B7
:10BAB0009C4203D001242046BDE8F087394B13B1E6
:10BAC0000020AFF3008001F091FB20BB364801F06D
:10BAD000F1F90028EED1002EECD016F03F06E9D1A6
:10BAE000A978384602F000FB04460028E2D0A97885
:10BAF00038463346324602F05BFBDCE7AB788B42DC
:10BB0000DCD02A4B1C6814F00104D4D000BE002401
:10BB10002046BDE8F08701F071FB04460028D5D12E
:10BB2000214801F0C7F90028D0D0A978204602F0BA
:10BB3000DBFA0028CAD01E494022A1F53F7001F06F
:10BB4000E5F9034608B31A4AA978204602F030FB0B
:10BB50000028AFD1154B1B68DB07B7D500BEB5E792
:10BB60000F4801F0C1F93F280AD94023114AE9786A
:10BB7000002002F01DFBAB789AE7AFF300808BE763
:10BB8000E978002002F0E8FA91E7A97802F0E4FAF7
:10BB90009CE700BFDC8200200000000000000000E5
:10BBA000EC8200200000000008830020F0ED00E09F
:10BBB00004860020C485002002488C22002141F028
:10BBC00019BA00BF4486002002488C22002141F0AF
:10BBD00011BA00BF448600202DE9F0414B79032BB8
:10BBE00082B011D10F79C7EBC7051235ADB29542BE
:10BBF0000C4604D8DFF89C8098F8011049B1234B1B
:10BC00001B68DA0700D500BE0025284602B0BDE853
:10BC1000F08194F800C004EB0C0292F801E0BEF150
:10BC2000210FECD1C8F8882014F80C1008F1010E8F
:10BC300008F1020C1144CDE900CE3A46064602F066
:10BC4000BFF90028DBD0A37998F80210012B04BFBC
:10BC5000E37988F803300122D8F8883088F8042086
:10BC6000A278B3F8073088F80020A8F80630002939
:10BC7000CBD0074A3046402302F09AFA0028C4D1BC
:10BC8000024B1B68DB07C0D500BEBEE7F0ED00E04D
:10BC90008C86002044860020F0B51446127802F00D
:10BCA0001F05012D83B00FD10B467149A78891F86C
:10BCB00000C0FFB2BC4507D112F06002064606D1B3
:10BCC00083BB6278062A30D0002003B0F0BD202A62
:10BCD000FAD16278013A0A2AF6D801A050F822F087
:10BCE000B5BD0200A1BD02008DBD0200C9BC0200AD
:10BCF000C9BC0200C9BC0200C9BC0200C9BC020028
:10BD000075BD02004FBD02000DBD020063B3022BE2
:10BD100008D16388574ADBB20B711AB1194600206B
:10BD2000AFF30080012003B0F0BD6288120A212A1F
:10BD300065D0222AC8D11846FFF7D6FA4C490246E8
:10BD4000CB883046214602F0B3FA2846BDE7002BE7
:10BD5000E8D162884848120A4A7128B1114618464B
:10BD6000AFF300800028AFD02146304602F086FABB
:10BD70000120AAE7002B4ED1E388402BA4D83F4AEC
:10BD80002146304602F094FA01209EE7002BC9D1EB
:10BD90003B4A21463046012302F08AFA012094E70B
:10BDA000002BBFD1374A21463046012302F080FAEA
:10BDB00001208AE7002BB5D1E5886088402D4FEA45
:10BDC00010222F4628BF402710F0FF003ED0012D43
:10BDD00046D9013F08722C49BFB201250B46009796
:10BDE00001460020FFF788FA2B189BB28BBB274A2D
:10BDF0001268D2077FF568AF00BE184665E7D1F834
:10BE00008820002A3FF460AF1378214603B0BDE8D4
:10BE1000F04002F04DBA022B84D1E5886388402DB2
:10BE20002C4628BF402413F0FF004FEA132205D010
:10BE3000012D03D991F84830834214D00F4B009460
:10BE400001460020FFF76CFA01203EE710491D462D
:10BE5000C4E70F4A2146304602F02AFA012034E7AF
:10BE60000B491D46BAE7013C0A4BA4B2E7E700BF05
:10BE70004486002000000000000000008C860020A6
:10BE800048860020498600204D860020F0ED00E025
:10BE90004C8600208D86002030B51C4CA2788A424A
:10BEA00083B00CD16178914217D1194A22B1194956
:10BEB000DAB20020AFF30080012003B030BD627819
:10BEC0008A42F2D0144B1B68DB0703D500BE00206A
:10BED00003B030BD002003B030BD00229BB211463C
:10BEE00005460093104604F14803FFF719FAA178BC
:10BEF0002846402304F1480202F05AF90028DBD119
:10BF0000054B1B68DA07E5D500BED6E7448600205E
:10BF1000000000004C860020F0ED00E070B500F15C
:10BF20002C050446284600F0C5FF08B9002070BD66
:10BF30006178002002F0D8F80028F7D004F50A76DE
:10BF400028463146402200F0E1FF054660B1034635
:10BF500061783246002002F02BF940B9054B1B688E
:10BF6000DB07E3D500BE70BD617802F0F5F8284626
:10BF700070BD00BFF0ED00E030B5164C83B000217D
:10BF80000D464FF41A72204641F034F804F148018E
:10BF900004F1100000950123802200F04FFF802261
:10BFA00004F1C8010123009504F12C0000F046FFC4
:10BFB00004F5A471012038F07FFE04F5CC7103462E
:10BFC0000120C4E9095338F077FEC4E9100503B035
:10BFD00030BD00BFB8AA022010B5084C002304F100
:10BFE0001000C4E90033C4E9023301F0B7F804F1EA
:10BFF0002C00BDE8104001F0B1B800BFB8AA022083
:10C000002DE9F0434B79012B83B002D18B79012BC1
:10C0100004D00025284603B0BDE8F083CB79002B7F
:10C02000F7D10B78CC1806466578242D99B20BD140
:10C03000914202D9EDE78A42EBD323781C440B44AA
:10C040006578242D99B2F6D0042DE2D16379012BC5
:10C05000DFD1A379032BDCD1E579002DD9D1DFF82D
:10C06000CC8098F8010098F8023050EA030905D016
:10C070002B4B1B68DB07CCD500BECBE7A37888F839
:10C08000003027782079CB199DB2274430B922E0BF
:10C090003B7881451D44ADB21F441CD2AA421AD33D
:10C0A0007B78052BF4D139463046019201F0FCFF34
:10C0B000019A68B3BB782079D90914BF88F8013098
:10C0C00088F80230397809F101030D445FFA83F9E9
:10C0D000ADB20F44DCE7134800F006FF3F2899D9C2
:10C0E00098F80210002001F0FFFF002892D00D48C0
:10C0F00000F0FAFE3F2898F8021005D90A4A4023BA
:10C10000002002F055F885E7002002F025F881E7CD
:10C11000034B1B68DA077FF57CAF00BE054679E765
:10C12000F0ED00E0C8AA0220A0AC0220B8AA0220CC
:10C1300000207047F8B52D4DAA788A421E4619D1C5
:10C140009AB205F5F47105F1100000F091FF284B4B
:10C1500013B10020AFF30080264800F0C5FE3F2851
:10C1600005D9A978002001F0BFFF044668BB01246F
:10C170002046F8BD6B788B4208D01F4B1C6814F02A
:10C180000104F5D000BE00242046F8BD074628462D
:10C19000FFF7C4FE0028EAD105F12C0000F08AFE6A
:10C1A0000028E4D1002EE2D016F03F06DFD16978F6
:10C1B000384601F099FF04460028D8D069783846FF
:10C1C0003346324601F0F4FFD2E70A4800F08CFE15
:10C1D0003F28A97805D9094A4023002001F0E8FF4B
:10C1E000C6E7002001F0B8FFC2E700BFB8AA0220EE
:10C1F00000000000C8AA0220F0ED00E0A0AC022080
:10C2000070B52E4CE28AA36852BA92B282B005464B
:10C2100012B1B3FBF2F292B2A06BD4F81110B0FBE2
:10C22000F2F61B1AB3F5007F28BF4FF4007309BA6A
:10C23000009302FB1602224B607B3144FFF71AF990
:10C24000031E13DB09D094F82E101D4A9BB228461A
:10C2500001F0AEFF58B302B070BD94F82E100093F9
:10C2600028461A4601F078FE02B070BDA268A36BA2
:10C2700043F203300021D31AA08784F83E10012036
:10C280000221A36284F82C0084F83010002AE2D046
:10C29000002BE0D0237BDB0914BF94F82E1094F818
:10C2A0002F10284602B0BDE8704001F0BDBF054B1D
:10C2B0001B68DB07CFD500BECDE700BFD0880020CC
:10C2C000D0860020F0ED00E038B5214B214C05462A
:10C2D0001BB1607BAFF30080B0B1A06BA36894F892
:10C2E0002F101D4A1B1AB3F5007F28BF4FF40073AF
:10C2F00028469BB201F05CFF00B138BD174B1B68AC
:10C30000DB07FAD500BE38BDA26BA16884F83E00F9
:10C310008B1A42F207720120A2870222A36284F8DC
:10C320002C0084F830200029E7D0002BE5D0237BB7
:10C33000DB0906D094F82E102846BDE8384001F0FD
:10C3400073BF94F82F102846BDE8384001F06CBF49
:10C3500000000000D0880020D0860020F0ED00E032
:10C36000044880F83C1080F83D2080F83E300120E1
:10C37000704700BFD088002002484022002140F0D2
:10C3800039BE00BFD088002002484022002140F082
:10C3900031BE00BFD08800204B79082B01D000208F
:10C3A00070478B79062BFAD1CB79502BF7D1162A0F
:10C3B00006D81C4B1B68D907F1D500BE002070477A
:10C3C00070B5194D8B7885F82D300B7882B005F15A
:10C3D0002F0205F12E0619440223CDE900261A4644
:10C3E000044601F0EDFD30B90E4A1268D2070FD5B0
:10C3F00000BE02B070BD204695F82F1000241F2308
:10C400002A4685F8304001F0D3FE20B11720F0E72E
:10C41000002002B070BD034B1B68DB07F6D500BEE1
:10C420001720E6E7F0ED00E0D0880020002961D178
:10C4300070B5137803F07F05022D84B0044620D038
:10C4400003F06003202B02D0002004B070BD5378AD
:10C45000FE2B34D0FF2BF7D15388002BF4D1D68894
:10C46000B3B2002BF0D13B4D11462046AE87C5E953
:10C470000D3385F8303085F83E3001F0FFFE0120A5
:10C48000E3E75578012DDBD15388002BDCD1314E09
:10C49000938896F83020042ADBB243D096F82E1009
:10C4A000994229D096F82F509D4205D122B92946AC
:10C4B00001F0ACFE00283AD0012004B070BD5388D2
:10C4C000002BC1D1D0880128BED1234B8DF80F009D
:10C4D0002BB10192FEF738FF019A0028B4D0451E17
:10C4E0001146204601230DF10F028DF80F5001F087
:10C4F000DFFEE1E701207047022ADDD1B26BB368AD
:10C500009B1A0324B36206F120020D2386F8304003
:10C5100001F04EFE0028CFD1104B1B68DB0793D5EE
:10C5200000BE92E7194601F07FFE28468DE72946B6
:10C53000204601F095FE0028BED1002386F8303059
:10C5400096F82F10034A20461F2301F031FE0028E1
:10C55000B2D1E1E7D088002049B30200F0ED00E05D
:10C56000F0B5A74C94F83050012D8FB01E46074609
:10C570006FD0032D46D02DB1022D00F0898001200F
:10C580000FB0F0BD94F82F308B42F8D11F2E40F041
:10C590009E809C4B22689A4240F09980E37B9A4AA5
:10C5A0006068A56284F82C50A5632262A568606269
:10C5B0000122282B84F83020656300F0DA802A2BD2
:10C5C00000F09F82002D00F02981227BD20940F0EB
:10C5D0002581B5F5007F40F2F78294F83C30A562E2
:10C5E0000120022284F82C0084F8302023B942F282
:10C5F000050284F83E30A287384601F015FE94F813
:10C600003050B9E794F82E308B42B8D10D2EB6D108
:10C61000E37B282B00F06D822A2B00F062827B4B9B
:10C6200023B1607B04F10F01AFF30080002084F898
:10C630003000734A94F82F101F23384601F0B8FDDC
:10C640000028DCD1724B1B68DA0700F190800020D3
:10C6500096E7E37B282B12D02A2B59D0A36B227BA1
:10C660003344D209A36347D0626B9A420DD9684B19
:10C670001B68DB07C3D500BE94F830507CE7D4E9D3
:10C680000D2333449342A3636CD3022384F83030E8
:10C6900094F82E10384601F0E3FD00287FF46FAFC8
:10C6A000A368A26B934202D9217BC9091ED19B1AB0
:10C6B0000325A36294F82E10564A84F83050384669
:10C6C0000D2301F075FD00287FF459AFBAE704236C
:10C6D00094F82E1084F83030384601F0A5FD384625
:10C6E00094F82F1001F0A0FD002049E794F82E10D7
:10C6F000384601F099FD42E7A38E474A607B04F17A
:10C700000F01FEF7A9FE0028C0F2C981A36BABE7B9
:10C71000E08A40BA80B218B1A368B3FBF0F080B2EF
:10C72000D4F81110A26B3C4DB2FBF0F309BA00FB38
:10C7300013221944607B00962B46FEF7B1FE0028B9
:10C74000C0F20A82864252D9002840F03382002388
:10C7500094F82F1000933246384601F0FDFB94F810
:10C76000305009E7FFF74CFD94F8305004E700BE65
:10C7700006E7E28A52BA92B29DB9002A85D094F8AF
:10C780003C300222002184F82C2084F83020A16261
:10C79000002B7FF47DAF42F2050284F83E30A28781
:10C7A00076E7207BC0090BD0002A00F0EE8195428D
:10C7B000C0F02282282B3846D4D0FFF785FD1EE733
:10C7C00094F83C20A562022384F82C3084F83030A1
:10C7D000002A7FF411AF42F205020023A28784F8F9
:10C7E0003E30207BC00900283FF406AF9DE1D4E92C
:10C7F0000D2333449342A363BFF447AF3846DCE7CD
:10C80000D088002055534243555342530000000046
:10C81000F0ED00E0F0880020D0860020607B252B22
:10C8200027D8DFE813F03701260026000A0126008A
:10C8300026002600260026002600260026002600C8
:10C8400026002600260026002600E90026002600F5
:10C8500026002600260026002600CF00B500260070
:10C860002600260026002600260026007B00260043
:10C87000520094F83C30002B3AD1B04AB049ABB2E8
:10C88000FEF7EAFD002833DB40F0C981A368002BE6
:10C890003FF4FBAEA16B94F83C205B1A012002210F
:10C8A000A36284F82C0084F8301022B942F205010A
:10C8B00084F83E20A187002B3FF4EAAE237BDB09FE
:10C8C00040F0338194F82F1096E604AA05A9FEF7EC
:10C8D000B1FD059B23B1BDF81020002A40F09681E0
:10C8E00094F83C3023B940F2024284F83E30A287EB
:10C8F000A268A36B94F83C100120D31A84F82C0092
:10C900000220A36284F8300021B942F2050084F8C5
:10C910003E10A087002A3FF4BBAECCE705AD002354
:10C920000DF10E0204A96B600593AB60FEF782FD6A
:10C93000049A002AD4D0BDF80E30002BD0D012BA01
:10C940005BBA08200221ADF81E3006928DF8170060
:10C950008DF81C1095E80700784BA56883E8070060
:10C960000C20002D40F03981A36B94F83C205B42F1
:10C970000121A362022384F82C1084F83030002AAD
:10C980007FF486AE42F2050384F83E50A3877FE62B
:10C990006C4B002B3FF47AAFE17CC1F3400301F014
:10C9A00001020909AFF3008000287FF46FAF94F80B
:10C9B0003C30002B9CD140F202420023A28784F835
:10C9C0003E3095E7059B604A03F4000343F0030300
:10C9D0000593002A00F01881AFF300809DF816300F
:10C9E000564AA56880F0010060F3C7138DF8163031
:10C9F000059B13600420B4E74FF020330022CDE9FB
:10CA00000A33524D069207A909AA0893079309937E
:10CA10000D930C9305AE0DAB0595FEF79DFC0FCE67
:10CA2000DFF818C1A568ACE80F000FCEACE80F0026
:10CA30003368CCF80030242093E794F83C2094F835
:10CA40003D0094F83E10DFF8F4C04FF0000E4FF0B8
:10CA50000003CDE905EECDE907EE62F303038DF89F
:10CA60001630F0220A23ADF824E08DF820008DF86E
:10CA700021108DF814208DF81B3005AE0FCEACE8D8
:10CA80000F003368A4F83CE084F83EE0ACF80030D6
:10CA9000122066E7FEF7B4FC002888D0F6E6A2680C
:10CAA000A36B94F83C0084F82C50D11A0225A162A3
:10CAB00084F8305020B942F2050584F83E00A5877D
:10CAC000002A3FF4D1AD00293FF4CEAD237BDB0932
:10CAD00000F0948094F82E10384601F0A5FBA36B6B
